{
    "contractName": "TrailContract",
    "abi": [
        {
            "inputs": [
                {
                    "internalType": "address",
                    "name": "governor",
                    "type": "address"
                },
                {
                    "internalType": "address",
                    "name": "controller",
                    "type": "address"
                },
                {
                    "internalType": "string",
                    "name": "immutableData",
                    "type": "string"
                },
                {
                    "internalType": "string",
                    "name": "recordData",
                    "type": "string"
                }
            ],
            "stateMutability": "nonpayable",
            "type": "constructor"
        },
        {
            "anonymous": false,
            "inputs": [
                {
                    "indexed": true,
                    "internalType": "address",
                    "name": "controller",
                    "type": "address"
                },
                {
                    "indexed": false,
                    "internalType": "uint32",
                    "name": "stateIndex",
                    "type": "uint32"
                },
                {
                    "indexed": true,
                    "internalType": "bytes32",
                    "name": "stateHash",
                    "type": "bytes32"
                }
            ],
            "name": "TrailRecordAdded",
            "type": "event"
        },
        {
            "inputs": [],
            "name": "controllerAddress",
            "outputs": [
                {
                    "internalType": "address",
                    "name": "",
                    "type": "address"
                }
            ],
            "stateMutability": "view",
            "type": "function"
        },
        {
            "inputs": [],
            "name": "firstTrailState",
            "outputs": [
                {
                    "internalType": "bytes32",
                    "name": "state",
                    "type": "bytes32"
                },
                {
                    "internalType": "uint256",
                    "name": "blockNumber",
                    "type": "uint256"
                }
            ],
            "stateMutability": "view",
            "type": "function"
        },
        {
            "inputs": [],
            "name": "governorAddress",
            "outputs": [
                {
                    "internalType": "address",
                    "name": "",
                    "type": "address"
                }
            ],
            "stateMutability": "view",
            "type": "function"
        },
        {
            "inputs": [],
            "name": "immutableIssuerAddress",
            "outputs": [
                {
                    "internalType": "address",
                    "name": "",
                    "type": "address"
                }
            ],
            "stateMutability": "view",
            "type": "function"
        },
        {
            "inputs": [],
            "name": "lastTrailState",
            "outputs": [
                {
                    "internalType": "bytes32",
                    "name": "state",
                    "type": "bytes32"
                },
                {
                    "internalType": "uint256",
                    "name": "blockNumber",
                    "type": "uint256"
                }
            ],
            "stateMutability": "view",
            "type": "function"
        },
        {
            "inputs": [],
            "name": "trail",
            "outputs": [
                {
                    "internalType": "string",
                    "name": "immutableData",
                    "type": "string"
                },
                {
                    "internalType": "string",
                    "name": "recordData",
                    "type": "string"
                },
                {
                    "internalType": "uint32",
                    "name": "stateIndex",
                    "type": "uint32"
                },
                {
                    "internalType": "uint256",
                    "name": "created",
                    "type": "uint256"
                },
                {
                    "internalType": "uint256",
                    "name": "updated",
                    "type": "uint256"
                }
            ],
            "stateMutability": "view",
            "type": "function"
        },
        {
            "inputs": [
                {
                    "internalType": "uint256",
                    "name": "",
                    "type": "uint256"
                }
            ],
            "name": "trailType",
            "outputs": [
                {
                    "internalType": "string",
                    "name": "",
                    "type": "string"
                }
            ],
            "stateMutability": "view",
            "type": "function"
        },
        {
            "inputs": [],
            "name": "lastRecord",
            "outputs": [
                {
                    "internalType": "string",
                    "name": "",
                    "type": "string"
                }
            ],
            "stateMutability": "view",
            "type": "function"
        },
        {
            "inputs": [],
            "name": "immutableRecord",
            "outputs": [
                {
                    "internalType": "string",
                    "name": "",
                    "type": "string"
                }
            ],
            "stateMutability": "view",
            "type": "function"
        },
        {
            "inputs": [
                {
                    "internalType": "string",
                    "name": "recordData",
                    "type": "string"
                },
                {
                    "internalType": "bytes32",
                    "name": "fromStateHash",
                    "type": "bytes32"
                }
            ],
            "name": "addRecord",
            "outputs": [],
            "stateMutability": "nonpayable",
            "type": "function"
        },
        {
            "inputs": [
                {
                    "internalType": "address",
                    "name": "newController",
                    "type": "address"
                }
            ],
            "name": "changeController",
            "outputs": [],
            "stateMutability": "nonpayable",
            "type": "function"
        },
        {
            "inputs": [
                {
                    "internalType": "address",
                    "name": "newGovernor",
                    "type": "address"
                }
            ],
            "name": "changeGovernor",
            "outputs": [],
            "stateMutability": "nonpayable",
            "type": "function"
        },
        {
            "inputs": [],
            "name": "trailID",
            "outputs": [
                {
                    "internalType": "string",
                    "name": "",
                    "type": "string"
                }
            ],
            "stateMutability": "view",
            "type": "function"
        }
    ],
    "bytecode": "0x608060405234801561000f575f80fd5b506040516123a43803806123a4833981810160405281019061003191906104a5565b335f806101000a81548173ffffffffffffffffffffffffffffffffffffffff021916908373ffffffffffffffffffffffffffffffffffffffff1602179055508360015f6101000a81548173ffffffffffffffffffffffffffffffffffffffff021916908373ffffffffffffffffffffffffffffffffffffffff1602179055508260025f6101000a81548173ffffffffffffffffffffffffffffffffffffffff021916908373ffffffffffffffffffffffffffffffffffffffff16021790555060038060018154018082558091505060019003905f5260205f20015f6040518060400160405280600981526020017f545241494c3a312e30000000000000000000000000000000000000000000000081525090919091509081610153919061074e565b505f60046002015f6101000a81548163ffffffff021916908363ffffffff1602179055508160045f019081610188919061074e565b50806004600101908161019b919061074e565b504260046003018190555042600480018190555060405180604001604052806101c861029260201b60201c565b815260200143815250600b5f820151815f015560208201518160010155905050600b60095f820154815f015560018201548160010155905050600b5f015460025f9054906101000a900473ffffffffffffffffffffffffffffffffffffffff1673ffffffffffffffffffffffffffffffffffffffff167f1a359be8b300d28a1c430120afd7000e248022e24c5c83fda830eaa3eb33620860046002015f9054906101000a900463ffffffff16604051610281919061083b565b60405180910390a35050505061093e565b5f3060025f9054906101000a900473ffffffffffffffffffffffffffffffffffffffff16600460010160046002015f9054906101000a900463ffffffff166040516020016102e394939291906108f4565b60405160208183030381529060405280519060200120905090565b5f604051905090565b5f80fd5b5f80fd5b5f73ffffffffffffffffffffffffffffffffffffffff82169050919050565b5f6103388261030f565b9050919050565b6103488161032e565b8114610352575f80fd5b50565b5f815190506103638161033f565b92915050565b5f80fd5b5f80fd5b5f601f19601f8301169050919050565b7f4e487b71000000000000000000000000000000000000000000000000000000005f52604160045260245ffd5b6103b782610371565b810181811067ffffffffffffffff821117156103d6576103d5610381565b5b80604052505050565b5f6103e86102fe565b90506103f482826103ae565b919050565b5f67ffffffffffffffff82111561041357610412610381565b5b61041c82610371565b9050602081019050919050565b8281835e5f83830152505050565b5f610449610444846103f9565b6103df565b9050828152602081018484840111156104655761046461036d565b5b610470848285610429565b509392505050565b5f82601f83011261048c5761048b610369565b5b815161049c848260208601610437565b91505092915050565b5f805f80608085870312156104bd576104bc610307565b5b5f6104ca87828801610355565b94505060206104db87828801610355565b935050604085015167ffffffffffffffff8111156104fc576104fb61030b565b5b61050887828801610478565b925050606085015167ffffffffffffffff8111156105295761052861030b565b5b61053587828801610478565b91505092959194509250565b5f81519050919050565b7f4e487b71000000000000000000000000000000000000000000000000000000005f52602260045260245ffd5b5f600282049050600182168061058f57607f821691505b6020821081036105a2576105a161054b565b5b50919050565b5f819050815f5260205f209050919050565b5f6020601f8301049050919050565b5f82821b905092915050565b5f600883026106047fffffffffffffffffffffffffffffffffffffffffffffffffffffffffffffffff826105c9565b61060e86836105c9565b95508019841693508086168417925050509392505050565b5f819050919050565b5f819050919050565b5f61065261064d61064884610626565b61062f565b610626565b9050919050565b5f819050919050565b61066b83610638565b61067f61067782610659565b8484546105d5565b825550505050565b5f90565b610693610687565b61069e818484610662565b505050565b5b818110156106c1576106b65f8261068b565b6001810190506106a4565b5050565b601f821115610706576106d7816105a8565b6106e0846105ba565b810160208510156106ef578190505b6107036106fb856105ba565b8301826106a3565b50505b505050565b5f82821c905092915050565b5f6107265f198460080261070b565b1980831691505092915050565b5f61073e8383610717565b9150826002028217905092915050565b61075782610541565b67ffffffffffffffff8111156107705761076f610381565b5b61077a8254610578565b6107858282856106c5565b5f60209050601f8311600181146107b6575f84156107a4578287015190505b6107ae8582610733565b865550610815565b601f1984166107c4866105a8565b5f5b828110156107eb578489015182556001820191506020850194506020810190506107c6565b868310156108085784890151610804601f891682610717565b8355505b6001600288020188555050505b505050505050565b5f63ffffffff82169050919050565b6108358161081d565b82525050565b5f60208201905061084e5f83018461082c565b92915050565b61085d8161032e565b82525050565b5f82825260208201905092915050565b5f815461087f81610578565b6108898186610863565b9450600182165f81146108a357600181146108b9576108eb565b60ff1983168652811515602002860193506108eb565b6108c2856105a8565b5f5b838110156108e3578154818901526001820191506020810190506108c4565b808801955050505b50505092915050565b5f6080820190506109075f830187610854565b6109146020830186610854565b81810360408301526109268185610873565b9050610935606083018461082c565b95945050505050565b611a598061094b5f395ff3fe608060405234801561000f575f80fd5b50600436106100cd575f3560e01c80636922b1761161008a578063e2557f3711610064578063e2557f37146101ef578063e3a645981461020d578063e40a315f1461022f578063e4c0aaf41461024d576100cd565b80636922b176146101825780636cb90cb8146101b2578063b2124a9b146101d1576100cd565b80631cbb8eaa146100d1578063276f1c41146100f0578063308631e11461010e5780633cebb8231461012a5780634b24ea471461014657806360945b7314610164575b5f80fd5b6100d9610269565b6040516100e7929190610f0f565b60405180910390f35b6100f861027a565b6040516101059190610f75565b60405180910390f35b61012860048036038101906101239190611021565b61029f565b005b610144600480360381019061013f91906110a8565b610495565b005b61014e610567565b60405161015b9190610f75565b60405180910390f35b61016c61058c565b6040516101799190610f75565b60405180910390f35b61019c600480360381019061019791906110fd565b6105af565b6040516101a99190611198565b60405180910390f35b6101ba610655565b6040516101c8929190610f0f565b60405180910390f35b6101d9610666565b6040516101e69190611198565b60405180910390f35b6101f76106f8565b6040516102049190611198565b60405180910390f35b61021561078b565b6040516102269594939291906111d6565b60405180910390f35b6102376108c9565b6040516102449190611198565b60405180910390f35b610267600480360381019061026291906110a8565b6108d8565b005b6009805f0154908060010154905082565b60015f9054906101000a900473ffffffffffffffffffffffffffffffffffffffff1681565b60025f9054906101000a900473ffffffffffffffffffffffffffffffffffffffff1673ffffffffffffffffffffffffffffffffffffffff163373ffffffffffffffffffffffffffffffffffffffff161461032e576040517f08c379a0000000000000000000000000000000000000000000000000000000008152600401610325906112a5565b60405180910390fd5b80600b5f015414610374576040517f08c379a000000000000000000000000000000000000000000000000000000000815260040161036b9061130d565b60405180910390fd5b82826004600101918261038892919061155c565b50600160046002015f9054906101000a900463ffffffff166103aa9190611656565b60046002015f6101000a81548163ffffffff021916908363ffffffff16021790555042600480018190555060405180604001604052806103e86109aa565b815260200143815250600b5f820151815f015560208201518160010155905050600b5f015460025f9054906101000a900473ffffffffffffffffffffffffffffffffffffffff1673ffffffffffffffffffffffffffffffffffffffff167f1a359be8b300d28a1c430120afd7000e248022e24c5c83fda830eaa3eb33620860046002015f9054906101000a900463ffffffff16604051610488919061168d565b60405180910390a3505050565b60015f9054906101000a900473ffffffffffffffffffffffffffffffffffffffff1673ffffffffffffffffffffffffffffffffffffffff163373ffffffffffffffffffffffffffffffffffffffff1614610524576040517f08c379a000000000000000000000000000000000000000000000000000000000815260040161051b90611716565b60405180910390fd5b8060025f6101000a81548173ffffffffffffffffffffffffffffffffffffffff021916908373ffffffffffffffffffffffffffffffffffffffff16021790555050565b60025f9054906101000a900473ffffffffffffffffffffffffffffffffffffffff1681565b5f8054906101000a900473ffffffffffffffffffffffffffffffffffffffff1681565b600381815481106105be575f80fd5b905f5260205f20015f9150905080546105d69061138f565b80601f01602080910402602001604051908101604052809291908181526020018280546106029061138f565b801561064d5780601f106106245761010080835404028352916020019161064d565b820191905f5260205f20905b81548152906001019060200180831161063057829003601f168201915b505050505081565b600b805f0154908060010154905082565b606060045f0180546106779061138f565b80601f01602080910402602001604051908101604052809291908181526020018280546106a39061138f565b80156106ee5780601f106106c5576101008083540402835291602001916106ee565b820191905f5260205f20905b8154815290600101906020018083116106d157829003601f168201915b5050505050905090565b60606004600101805461070a9061138f565b80601f01602080910402602001604051908101604052809291908181526020018280546107369061138f565b80156107815780601f1061075857610100808354040283529160200191610781565b820191905f5260205f20905b81548152906001019060200180831161076457829003601f168201915b5050505050905090565b6004805f01805461079b9061138f565b80601f01602080910402602001604051908101604052809291908181526020018280546107c79061138f565b80156108125780601f106107e957610100808354040283529160200191610812565b820191905f5260205f20905b8154815290600101906020018083116107f557829003601f168201915b5050505050908060010180546108279061138f565b80601f01602080910402602001604051908101604052809291908181526020018280546108539061138f565b801561089e5780601f106108755761010080835404028352916020019161089e565b820191905f5260205f20905b81548152906001019060200180831161088157829003601f168201915b505050505090806002015f9054906101000a900463ffffffff16908060030154908060040154905085565b60606108d3610a16565b905090565b60015f9054906101000a900473ffffffffffffffffffffffffffffffffffffffff1673ffffffffffffffffffffffffffffffffffffffff163373ffffffffffffffffffffffffffffffffffffffff1614610967576040517f08c379a000000000000000000000000000000000000000000000000000000000815260040161095e90611716565b60405180910390fd5b8060015f6101000a81548173ffffffffffffffffffffffffffffffffffffffff021916908373ffffffffffffffffffffffffffffffffffffffff16021790555050565b5f3060025f9054906101000a900473ffffffffffffffffffffffffffffffffffffffff16600460010160046002015f9054906101000a900463ffffffff166040516020016109fb94939291906117b5565b60405160208183030381529060405280519060200120905090565b60605f610a21610a5b565b9050610a2c81610a62565b610a3530610b2c565b604051602001610a46929190611885565b60405160208183030381529060405291505090565b5f46905090565b60605f6001610a7084610b59565b0190505f8167ffffffffffffffff811115610a8e57610a8d611335565b5b6040519080825280601f01601f191660200182016040528015610ac05781602001600182028036833780820191505090505b5090505f82602001820190505b600115610b21578080600190039150507f3031323334353637383961626364656600000000000000000000000000000000600a86061a8153600a8581610b1657610b156118c6565b5b0494505f8503610acd575b819350505050919050565b6060610b528273ffffffffffffffffffffffffffffffffffffffff16601460ff16610caa565b9050919050565b5f805f90507a184f03e93ff9f4daa797ed6e38ed64bf6a1f0100000000000000008310610bb5577a184f03e93ff9f4daa797ed6e38ed64bf6a1f0100000000000000008381610bab57610baa6118c6565b5b0492506040810190505b6d04ee2d6d415b85acef81000000008310610bf2576d04ee2d6d415b85acef81000000008381610be857610be76118c6565b5b0492506020810190505b662386f26fc100008310610c2157662386f26fc100008381610c1757610c166118c6565b5b0492506010810190505b6305f5e1008310610c4a576305f5e1008381610c4057610c3f6118c6565b5b0492506008810190505b6127108310610c6f576127108381610c6557610c646118c6565b5b0492506004810190505b60648310610c925760648381610c8857610c876118c6565b5b0492506002810190505b600a8310610ca1576001810190505b80915050919050565b60605f6002836002610cbc91906118f3565b610cc69190611934565b67ffffffffffffffff811115610cdf57610cde611335565b5b6040519080825280601f01601f191660200182016040528015610d115781602001600182028036833780820191505090505b5090507f3000000000000000000000000000000000000000000000000000000000000000815f81518110610d4857610d47611967565b5b60200101907effffffffffffffffffffffffffffffffffffffffffffffffffffffffffffff191690815f1a9053507f780000000000000000000000000000000000000000000000000000000000000081600181518110610dab57610daa611967565b5b60200101907effffffffffffffffffffffffffffffffffffffffffffffffffffffffffffff191690815f1a9053505f6001846002610de991906118f3565b610df39190611934565b90505b6001811115610e92577f3031323334353637383961626364656600000000000000000000000000000000600f861660108110610e3557610e34611967565b5b1a60f81b828281518110610e4c57610e4b611967565b5b60200101907effffffffffffffffffffffffffffffffffffffffffffffffffffffffffffff191690815f1a905350600485901c945080610e8b90611994565b9050610df6565b505f8414610ed5576040517f08c379a0000000000000000000000000000000000000000000000000000000008152600401610ecc90611a05565b60405180910390fd5b8091505092915050565b5f819050919050565b610ef181610edf565b82525050565b5f819050919050565b610f0981610ef7565b82525050565b5f604082019050610f225f830185610ee8565b610f2f6020830184610f00565b9392505050565b5f73ffffffffffffffffffffffffffffffffffffffff82169050919050565b5f610f5f82610f36565b9050919050565b610f6f81610f55565b82525050565b5f602082019050610f885f830184610f66565b92915050565b5f80fd5b5f80fd5b5f80fd5b5f80fd5b5f80fd5b5f8083601f840112610fb757610fb6610f96565b5b8235905067ffffffffffffffff811115610fd457610fd3610f9a565b5b602083019150836001820283011115610ff057610fef610f9e565b5b9250929050565b61100081610edf565b811461100a575f80fd5b50565b5f8135905061101b81610ff7565b92915050565b5f805f6040848603121561103857611037610f8e565b5b5f84013567ffffffffffffffff81111561105557611054610f92565b5b61106186828701610fa2565b935093505060206110748682870161100d565b9150509250925092565b61108781610f55565b8114611091575f80fd5b50565b5f813590506110a28161107e565b92915050565b5f602082840312156110bd576110bc610f8e565b5b5f6110ca84828501611094565b91505092915050565b6110dc81610ef7565b81146110e6575f80fd5b50565b5f813590506110f7816110d3565b92915050565b5f6020828403121561111257611111610f8e565b5b5f61111f848285016110e9565b91505092915050565b5f81519050919050565b5f82825260208201905092915050565b8281835e5f83830152505050565b5f601f19601f8301169050919050565b5f61116a82611128565b6111748185611132565b9350611184818560208601611142565b61118d81611150565b840191505092915050565b5f6020820190508181035f8301526111b08184611160565b905092915050565b5f63ffffffff82169050919050565b6111d0816111b8565b82525050565b5f60a0820190508181035f8301526111ee8188611160565b905081810360208301526112028187611160565b905061121160408301866111c7565b61121e6060830185610f00565b61122b6080830184610f00565b9695505050505050565b7f4f6e6c792074686520547261696c20436f6e74726f6c6c65722063616e2063615f8201527f6c6c20746869732066756e6374696f6e00000000000000000000000000000000602082015250565b5f61128f603083611132565b915061129a82611235565b604082019050919050565b5f6020820190508181035f8301526112bc81611283565b9050919050565b7f496e76616c6964207374617465000000000000000000000000000000000000005f82015250565b5f6112f7600d83611132565b9150611302826112c3565b602082019050919050565b5f6020820190508181035f830152611324816112eb565b9050919050565b5f82905092915050565b7f4e487b71000000000000000000000000000000000000000000000000000000005f52604160045260245ffd5b7f4e487b71000000000000000000000000000000000000000000000000000000005f52602260045260245ffd5b5f60028204905060018216806113a657607f821691505b6020821081036113b9576113b8611362565b5b50919050565b5f819050815f5260205f209050919050565b5f6020601f8301049050919050565b5f82821b905092915050565b5f6008830261141b7fffffffffffffffffffffffffffffffffffffffffffffffffffffffffffffffff826113e0565b61142586836113e0565b95508019841693508086168417925050509392505050565b5f819050919050565b5f61146061145b61145684610ef7565b61143d565b610ef7565b9050919050565b5f819050919050565b61147983611446565b61148d61148582611467565b8484546113ec565b825550505050565b5f90565b6114a1611495565b6114ac818484611470565b505050565b5b818110156114cf576114c45f82611499565b6001810190506114b2565b5050565b601f821115611514576114e5816113bf565b6114ee846113d1565b810160208510156114fd578190505b611511611509856113d1565b8301826114b1565b50505b505050565b5f82821c905092915050565b5f6115345f1984600802611519565b1980831691505092915050565b5f61154c8383611525565b9150826002028217905092915050565b611566838361132b565b67ffffffffffffffff81111561157f5761157e611335565b5b611589825461138f565b6115948282856114d3565b5f601f8311600181146115c1575f84156115af578287013590505b6115b98582611541565b865550611620565b601f1984166115cf866113bf565b5f5b828110156115f6578489013582556001820191506020850194506020810190506115d1565b86831015611613578489013561160f601f891682611525565b8355505b6001600288020188555050505b50505050505050565b7f4e487b71000000000000000000000000000000000000000000000000000000005f52601160045260245ffd5b5f611660826111b8565b915061166b836111b8565b9250828201905063ffffffff81111561168757611686611629565b5b92915050565b5f6020820190506116a05f8301846111c7565b92915050565b7f4f6e6c792074686520547261696c20476f7665726e6f722063616e2063616c6c5f8201527f20746869732066756e6374696f6e000000000000000000000000000000000000602082015250565b5f611700602e83611132565b915061170b826116a6565b604082019050919050565b5f6020820190508181035f83015261172d816116f4565b9050919050565b5f81546117408161138f565b61174a8186611132565b9450600182165f8114611764576001811461177a576117ac565b60ff1983168652811515602002860193506117ac565b611783856113bf565b5f5b838110156117a457815481890152600182019150602081019050611785565b808801955050505b50505092915050565b5f6080820190506117c85f830187610f66565b6117d56020830186610f66565b81810360408301526117e78185611734565b90506117f660608301846111c7565b95945050505050565b7f75726e3a747261696c3a696f74613a65766d3a00000000000000000000000000815250565b5f81905092915050565b5f61183982611128565b6118438185611825565b9350611853818560208601611142565b80840191505092915050565b7f3a00000000000000000000000000000000000000000000000000000000000000815250565b5f61188f826117ff565b60138201915061189f828561182f565b91506118aa8261185f565b6001820191506118ba828461182f565b91508190509392505050565b7f4e487b71000000000000000000000000000000000000000000000000000000005f52601260045260245ffd5b5f6118fd82610ef7565b915061190883610ef7565b925082820261191681610ef7565b9150828204841483151761192d5761192c611629565b5b5092915050565b5f61193e82610ef7565b915061194983610ef7565b925082820190508082111561196157611960611629565b5b92915050565b7f4e487b71000000000000000000000000000000000000000000000000000000005f52603260045260245ffd5b5f61199e82610ef7565b91505f82036119b0576119af611629565b5b600182039050919050565b7f537472696e67733a20686578206c656e67746820696e73756666696369656e745f82015250565b5f6119ef602083611132565b91506119fa826119bb565b602082019050919050565b5f6020820190508181035f830152611a1c816119e3565b905091905056fea264697066735822122042fbae5cddb79fb3e3c52d757a894a3a6efccd05b1db6063ca483ab57ee78b2864736f6c63430008190033",
    "immutableReferences": {},
    "source": "// SPDX-License-Identifier: MIT\n\npragma solidity >=0.4.16 <0.9.0;\n\nimport \"@openzeppelin/contracts/utils/Strings.sol\";\n\n/**\n  * Trails Smart Contracrt \n  */\ncontract TrailContract {\n    address public immutableIssuerAddress;\n\n    address public governorAddress;\n    address public controllerAddress;\n\n    string[] public trailType;\n\n    struct Trail {\n        string immutableData;\n        string recordData;\n        uint32 stateIndex;\n        uint created;\n        uint updated;\n    }\n\n    Trail public trail;\n\n    TrailState public firstTrailState;\n    TrailState public lastTrailState;\n\n    struct TrailState {\n        bytes32 state;\n        uint blockNumber;\n    }\n\n    modifier onlyGovernor {\n        require(msg.sender == governorAddress, \"Only the Trail Governor can call this function\");\n        _;\n    }\n\n    modifier onlyController {\n        require(msg.sender == controllerAddress, \"Only the Trail Controller can call this function\");\n        _;\n    }\n\n    event TrailRecordAdded(address indexed controller, uint32 stateIndex, bytes32 indexed stateHash);\n\n    // Constructor is a special function which runs automatically on deployment.\n    constructor(address governor, address controller, string memory immutableData, string memory recordData) {\n        immutableIssuerAddress = msg.sender;\n\n        governorAddress = governor;\n        controllerAddress = controller;\n        trailType.push(\"TRAIL:1.0\");\n        trail.stateIndex = 0;\n\n        trail.immutableData = immutableData;\n        trail.recordData = recordData;\n\n        trail.created = block.timestamp;\n        trail.updated = block.timestamp;\n\n        lastTrailState = TrailState(calculateLastState(), block.number);\n        firstTrailState = lastTrailState;\n\n        emit TrailRecordAdded(controllerAddress, trail.stateIndex, lastTrailState.state);\n    }\n\n    /**\n     *.  Last record of a Trail.\n     */\n    function lastRecord() external view returns(string memory) {\n        return trail.recordData;\n    }\n\n    /** \n     *. Immutable record of a Trail.\n     */\n    function immutableRecord() external view returns(string memory) {\n        return trail.immutableData;\n    }\n\n    function addRecord(string calldata recordData, bytes32 fromStateHash) external onlyController {\n        if (lastTrailState.state != fromStateHash) {\n            revert(\"Invalid state\");\n        }\n\n        trail.recordData = recordData;\n        trail.stateIndex = trail.stateIndex + 1;\n\n        trail.updated = block.timestamp;\n\n         lastTrailState = TrailState(calculateLastState(), block.number);\n\n         emit TrailRecordAdded(controllerAddress, trail.stateIndex, lastTrailState.state);\n    }\n\n    function changeController(address newController) external onlyGovernor {\n        controllerAddress = newController;\n    }\n\n    function changeGovernor(address newGovernor) external onlyGovernor {\n        governorAddress = newGovernor;\n    }\n    \n    function trailID() external view returns (string memory) {\n        return calculateTrailID();\n    }\n\n    function calculateTrailID() internal view returns (string memory) {\n        uint256 chainID = getChainID();\n\n        return string.concat(\"urn:trail:iota:evm:\", Strings.toString(chainID),\":\", Strings.toHexString(address(this)));\n    }\n\n\n    function getChainID() internal view returns (uint256) {\n       return block.chainid;\n    }\n\n    function calculateLastState() internal view returns(bytes32) {\n        return keccak256(abi.encode(address(this), controllerAddress, trail.recordData, trail.stateIndex));\n    }\n}\n",
    "sourcePath": "/Users/jmcanterafonseca/work/IOTA/develop/Trail-SC-PoC/smart-contract/contracts/trail.sol",
    "compiler": {
        "name": "solc",
        "version": "0.8.25+commit.b61c2a91.Emscripten.clang"
    },
    "schemaVersion": "3.4.16",
    "updatedAt": "2024-03-25T15:46:50.040Z",
    "devdoc": {
        "kind": "dev",
        "methods": {},
        "version": 1
    },
    "userdoc": {
        "kind": "user",
        "methods": {
            "immutableRecord()": {
                "notice": ". Immutable record of a Trail."
            },
            "lastRecord()": {
                "notice": ".  Last record of a Trail."
            }
        },
        "notice": "Trails Smart Contracrt ",
        "version": 1
    }
}