{
    "contractName": "TrailContract",
    "abi": [
        {
            "inputs": [
                {
                    "internalType": "address",
                    "name": "governor",
                    "type": "address"
                },
                {
                    "internalType": "address",
                    "name": "controller",
                    "type": "address"
                },
                {
                    "internalType": "string",
                    "name": "immutableData",
                    "type": "string"
                },
                {
                    "internalType": "string",
                    "name": "recordData",
                    "type": "string"
                },
                {
                    "internalType": "string",
                    "name": "trailType",
                    "type": "string"
                }
            ],
            "stateMutability": "nonpayable",
            "type": "constructor"
        },
        {
            "anonymous": false,
            "inputs": [
                {
                    "indexed": true,
                    "internalType": "address",
                    "name": "controller",
                    "type": "address"
                },
                {
                    "indexed": false,
                    "internalType": "uint32",
                    "name": "stateIndex",
                    "type": "uint32"
                },
                {
                    "indexed": true,
                    "internalType": "bytes32",
                    "name": "stateHash",
                    "type": "bytes32"
                }
            ],
            "name": "TrailRecordAdded",
            "type": "event"
        },
        {
            "inputs": [],
            "name": "controllerAddress",
            "outputs": [
                {
                    "internalType": "address",
                    "name": "",
                    "type": "address"
                }
            ],
            "stateMutability": "view",
            "type": "function"
        },
        {
            "inputs": [],
            "name": "firstTrailState",
            "outputs": [
                {
                    "internalType": "bytes32",
                    "name": "state",
                    "type": "bytes32"
                },
                {
                    "internalType": "uint256",
                    "name": "blockNumber",
                    "type": "uint256"
                }
            ],
            "stateMutability": "view",
            "type": "function"
        },
        {
            "inputs": [],
            "name": "governorAddress",
            "outputs": [
                {
                    "internalType": "address",
                    "name": "",
                    "type": "address"
                }
            ],
            "stateMutability": "view",
            "type": "function"
        },
        {
            "inputs": [],
            "name": "immutableIssuerAddress",
            "outputs": [
                {
                    "internalType": "address",
                    "name": "",
                    "type": "address"
                }
            ],
            "stateMutability": "view",
            "type": "function"
        },
        {
            "inputs": [],
            "name": "lastTrailState",
            "outputs": [
                {
                    "internalType": "bytes32",
                    "name": "state",
                    "type": "bytes32"
                },
                {
                    "internalType": "uint256",
                    "name": "blockNumber",
                    "type": "uint256"
                }
            ],
            "stateMutability": "view",
            "type": "function"
        },
        {
            "inputs": [],
            "name": "meta",
            "outputs": [
                {
                    "internalType": "uint256",
                    "name": "created",
                    "type": "uint256"
                },
                {
                    "internalType": "uint256",
                    "name": "updated",
                    "type": "uint256"
                }
            ],
            "stateMutability": "view",
            "type": "function"
        },
        {
            "inputs": [],
            "name": "trail",
            "outputs": [
                {
                    "internalType": "string",
                    "name": "immutableData",
                    "type": "string"
                },
                {
                    "internalType": "string",
                    "name": "recordData",
                    "type": "string"
                },
                {
                    "internalType": "uint32",
                    "name": "stateIndex",
                    "type": "uint32"
                }
            ],
            "stateMutability": "view",
            "type": "function"
        },
        {
            "inputs": [],
            "name": "lastRecord",
            "outputs": [
                {
                    "internalType": "string",
                    "name": "",
                    "type": "string"
                }
            ],
            "stateMutability": "view",
            "type": "function"
        },
        {
            "inputs": [],
            "name": "immutableRecord",
            "outputs": [
                {
                    "internalType": "string",
                    "name": "",
                    "type": "string"
                }
            ],
            "stateMutability": "view",
            "type": "function"
        },
        {
            "inputs": [
                {
                    "internalType": "string",
                    "name": "recordData",
                    "type": "string"
                },
                {
                    "internalType": "bytes32",
                    "name": "fromStateHash",
                    "type": "bytes32"
                }
            ],
            "name": "addRecord",
            "outputs": [],
            "stateMutability": "nonpayable",
            "type": "function"
        },
        {
            "inputs": [
                {
                    "internalType": "address",
                    "name": "newController",
                    "type": "address"
                }
            ],
            "name": "changeController",
            "outputs": [],
            "stateMutability": "nonpayable",
            "type": "function"
        },
        {
            "inputs": [
                {
                    "internalType": "address",
                    "name": "newGovernor",
                    "type": "address"
                }
            ],
            "name": "changeGovernor",
            "outputs": [],
            "stateMutability": "nonpayable",
            "type": "function"
        },
        {
            "inputs": [],
            "name": "trailID",
            "outputs": [
                {
                    "internalType": "string",
                    "name": "",
                    "type": "string"
                }
            ],
            "stateMutability": "view",
            "type": "function"
        }
    ],
    "bytecode": "0x608060405234801561000f575f80fd5b5060405161231e38038061231e833981810160405281019061003191906104ed565b335f806101000a81548173ffffffffffffffffffffffffffffffffffffffff021916908373ffffffffffffffffffffffffffffffffffffffff1602179055508460015f6101000a81548173ffffffffffffffffffffffffffffffffffffffff021916908373ffffffffffffffffffffffffffffffffffffffff1602179055508360025f6101000a81548173ffffffffffffffffffffffffffffffffffffffff021916908373ffffffffffffffffffffffffffffffffffffffff16021790555060066002018060018154018082558091505060019003905f5260205f20015f6040518060400160405280600981526020017f545241494c3a312e3000000000000000000000000000000000000000000000008152509091909150908161015691906107c5565b505f8190505f8151111561019a57600660020182908060018154018082558091505060019003905f5260205f20015f90919091909150908161019891906107c5565b505b5f60036002015f6101000a81548163ffffffff021916908363ffffffff1602179055508360035f0190816101ce91906107c5565b5082600360010190816101e191906107c5565b504260065f018190555042600660010181905550604051806040016040528061020e6102da60201b60201c565b815260200143815250600b5f820151815f015560208201518160010155905050600b60095f820154815f015560018201548160010155905050600b5f015460025f9054906101000a900473ffffffffffffffffffffffffffffffffffffffff1673ffffffffffffffffffffffffffffffffffffffff167f1a359be8b300d28a1c430120afd7000e248022e24c5c83fda830eaa3eb33620860036002015f9054906101000a900463ffffffff166040516102c791906108b2565b60405180910390a35050505050506109b5565b5f3060025f9054906101000a900473ffffffffffffffffffffffffffffffffffffffff16600360010160036002015f9054906101000a900463ffffffff1660405160200161032b949392919061096b565b60405160208183030381529060405280519060200120905090565b5f604051905090565b5f80fd5b5f80fd5b5f73ffffffffffffffffffffffffffffffffffffffff82169050919050565b5f61038082610357565b9050919050565b61039081610376565b811461039a575f80fd5b50565b5f815190506103ab81610387565b92915050565b5f80fd5b5f80fd5b5f601f19601f8301169050919050565b7f4e487b71000000000000000000000000000000000000000000000000000000005f52604160045260245ffd5b6103ff826103b9565b810181811067ffffffffffffffff8211171561041e5761041d6103c9565b5b80604052505050565b5f610430610346565b905061043c82826103f6565b919050565b5f67ffffffffffffffff82111561045b5761045a6103c9565b5b610464826103b9565b9050602081019050919050565b8281835e5f83830152505050565b5f61049161048c84610441565b610427565b9050828152602081018484840111156104ad576104ac6103b5565b5b6104b8848285610471565b509392505050565b5f82601f8301126104d4576104d36103b1565b5b81516104e484826020860161047f565b91505092915050565b5f805f805f60a086880312156105065761050561034f565b5b5f6105138882890161039d565b95505060206105248882890161039d565b945050604086015167ffffffffffffffff81111561054557610544610353565b5b610551888289016104c0565b935050606086015167ffffffffffffffff81111561057257610571610353565b5b61057e888289016104c0565b925050608086015167ffffffffffffffff81111561059f5761059e610353565b5b6105ab888289016104c0565b9150509295509295909350565b5f81519050919050565b7f4e487b71000000000000000000000000000000000000000000000000000000005f52602260045260245ffd5b5f600282049050600182168061060657607f821691505b602082108103610619576106186105c2565b5b50919050565b5f819050815f5260205f209050919050565b5f6020601f8301049050919050565b5f82821b905092915050565b5f6008830261067b7fffffffffffffffffffffffffffffffffffffffffffffffffffffffffffffffff82610640565b6106858683610640565b95508019841693508086168417925050509392505050565b5f819050919050565b5f819050919050565b5f6106c96106c46106bf8461069d565b6106a6565b61069d565b9050919050565b5f819050919050565b6106e2836106af565b6106f66106ee826106d0565b84845461064c565b825550505050565b5f90565b61070a6106fe565b6107158184846106d9565b505050565b5b818110156107385761072d5f82610702565b60018101905061071b565b5050565b601f82111561077d5761074e8161061f565b61075784610631565b81016020851015610766578190505b61077a61077285610631565b83018261071a565b50505b505050565b5f82821c905092915050565b5f61079d5f1984600802610782565b1980831691505092915050565b5f6107b5838361078e565b9150826002028217905092915050565b6107ce826105b8565b67ffffffffffffffff8111156107e7576107e66103c9565b5b6107f182546105ef565b6107fc82828561073c565b5f60209050601f83116001811461082d575f841561081b578287015190505b61082585826107aa565b86555061088c565b601f19841661083b8661061f565b5f5b828110156108625784890151825560018201915060208501945060208101905061083d565b8683101561087f578489015161087b601f89168261078e565b8355505b6001600288020188555050505b505050505050565b5f63ffffffff82169050919050565b6108ac81610894565b82525050565b5f6020820190506108c55f8301846108a3565b92915050565b6108d481610376565b82525050565b5f82825260208201905092915050565b5f81546108f6816105ef565b61090081866108da565b9450600182165f811461091a576001811461093057610962565b60ff198316865281151560200286019350610962565b6109398561061f565b5f5b8381101561095a5781548189015260018201915060208101905061093b565b808801955050505b50505092915050565b5f60808201905061097e5f8301876108cb565b61098b60208301866108cb565b818103604083015261099d81856108ea565b90506109ac60608301846108a3565b95945050505050565b61195c806109c25f395ff3fe608060405234801561000f575f80fd5b50600436106100cd575f3560e01c80636cb90cb81161008a578063e2557f3711610064578063e2557f37146101de578063e3a64598146101fc578063e40a315f1461021c578063e4c0aaf41461023a576100cd565b80636cb90cb814610182578063b2124a9b146101a1578063c885044e146101bf576100cd565b80631cbb8eaa146100d1578063276f1c41146100f0578063308631e11461010e5780633cebb8231461012a5780634b24ea471461014657806360945b7314610164575b5f80fd5b6100d9610256565b6040516100e7929190610e5c565b60405180910390f35b6100f8610267565b6040516101059190610ec2565b60405180910390f35b61012860048036038101906101239190610f6e565b61028c565b005b610144600480360381019061013f9190610ff5565b610483565b005b61014e610555565b60405161015b9190610ec2565b60405180910390f35b61016c61057a565b6040516101799190610ec2565b60405180910390f35b61018a61059d565b604051610198929190610e5c565b60405180910390f35b6101a96105ae565b6040516101b69190611090565b60405180910390f35b6101c7610640565b6040516101d59291906110b0565b60405180910390f35b6101e6610651565b6040516101f39190611090565b60405180910390f35b6102046106e4565b604051610213939291906110f5565b60405180910390f35b610224610816565b6040516102319190611090565b60405180910390f35b610254600480360381019061024f9190610ff5565b610825565b005b6009805f0154908060010154905082565b60015f9054906101000a900473ffffffffffffffffffffffffffffffffffffffff1681565b60025f9054906101000a900473ffffffffffffffffffffffffffffffffffffffff1673ffffffffffffffffffffffffffffffffffffffff163373ffffffffffffffffffffffffffffffffffffffff161461031b576040517f08c379a0000000000000000000000000000000000000000000000000000000008152600401610312906111a8565b60405180910390fd5b80600b5f015414610361576040517f08c379a000000000000000000000000000000000000000000000000000000000815260040161035890611210565b60405180910390fd5b82826003600101918261037592919061145f565b50600160036002015f9054906101000a900463ffffffff166103979190611559565b60036002015f6101000a81548163ffffffff021916908363ffffffff1602179055504260066001018190555060405180604001604052806103d66108f7565b815260200143815250600b5f820151815f015560208201518160010155905050600b5f015460025f9054906101000a900473ffffffffffffffffffffffffffffffffffffffff1673ffffffffffffffffffffffffffffffffffffffff167f1a359be8b300d28a1c430120afd7000e248022e24c5c83fda830eaa3eb33620860036002015f9054906101000a900463ffffffff166040516104769190611590565b60405180910390a3505050565b60015f9054906101000a900473ffffffffffffffffffffffffffffffffffffffff1673ffffffffffffffffffffffffffffffffffffffff163373ffffffffffffffffffffffffffffffffffffffff1614610512576040517f08c379a000000000000000000000000000000000000000000000000000000000815260040161050990611619565b60405180910390fd5b8060025f6101000a81548173ffffffffffffffffffffffffffffffffffffffff021916908373ffffffffffffffffffffffffffffffffffffffff16021790555050565b60025f9054906101000a900473ffffffffffffffffffffffffffffffffffffffff1681565b5f8054906101000a900473ffffffffffffffffffffffffffffffffffffffff1681565b600b805f0154908060010154905082565b606060035f0180546105bf90611292565b80601f01602080910402602001604051908101604052809291908181526020018280546105eb90611292565b80156106365780601f1061060d57610100808354040283529160200191610636565b820191905f5260205f20905b81548152906001019060200180831161061957829003601f168201915b5050505050905090565b6006805f0154908060010154905082565b60606003600101805461066390611292565b80601f016020809104026020016040519081016040528092919081815260200182805461068f90611292565b80156106da5780601f106106b1576101008083540402835291602001916106da565b820191905f5260205f20905b8154815290600101906020018083116106bd57829003601f168201915b5050505050905090565b6003805f0180546106f490611292565b80601f016020809104026020016040519081016040528092919081815260200182805461072090611292565b801561076b5780601f106107425761010080835404028352916020019161076b565b820191905f5260205f20905b81548152906001019060200180831161074e57829003601f168201915b50505050509080600101805461078090611292565b80601f01602080910402602001604051908101604052809291908181526020018280546107ac90611292565b80156107f75780601f106107ce576101008083540402835291602001916107f7565b820191905f5260205f20905b8154815290600101906020018083116107da57829003601f168201915b505050505090806002015f9054906101000a900463ffffffff16905083565b6060610820610963565b905090565b60015f9054906101000a900473ffffffffffffffffffffffffffffffffffffffff1673ffffffffffffffffffffffffffffffffffffffff163373ffffffffffffffffffffffffffffffffffffffff16146108b4576040517f08c379a00000000000000000000000000000000000000000000000000000000081526004016108ab90611619565b60405180910390fd5b8060015f6101000a81548173ffffffffffffffffffffffffffffffffffffffff021916908373ffffffffffffffffffffffffffffffffffffffff16021790555050565b5f3060025f9054906101000a900473ffffffffffffffffffffffffffffffffffffffff16600360010160036002015f9054906101000a900463ffffffff1660405160200161094894939291906116b8565b60405160208183030381529060405280519060200120905090565b60605f61096e6109a8565b9050610979816109af565b61098230610a79565b604051602001610993929190611788565b60405160208183030381529060405291505090565b5f46905090565b60605f60016109bd84610aa6565b0190505f8167ffffffffffffffff8111156109db576109da611238565b5b6040519080825280601f01601f191660200182016040528015610a0d5781602001600182028036833780820191505090505b5090505f82602001820190505b600115610a6e578080600190039150507f3031323334353637383961626364656600000000000000000000000000000000600a86061a8153600a8581610a6357610a626117c9565b5b0494505f8503610a1a575b819350505050919050565b6060610a9f8273ffffffffffffffffffffffffffffffffffffffff16601460ff16610bf7565b9050919050565b5f805f90507a184f03e93ff9f4daa797ed6e38ed64bf6a1f0100000000000000008310610b02577a184f03e93ff9f4daa797ed6e38ed64bf6a1f0100000000000000008381610af857610af76117c9565b5b0492506040810190505b6d04ee2d6d415b85acef81000000008310610b3f576d04ee2d6d415b85acef81000000008381610b3557610b346117c9565b5b0492506020810190505b662386f26fc100008310610b6e57662386f26fc100008381610b6457610b636117c9565b5b0492506010810190505b6305f5e1008310610b97576305f5e1008381610b8d57610b8c6117c9565b5b0492506008810190505b6127108310610bbc576127108381610bb257610bb16117c9565b5b0492506004810190505b60648310610bdf5760648381610bd557610bd46117c9565b5b0492506002810190505b600a8310610bee576001810190505b80915050919050565b60605f6002836002610c0991906117f6565b610c139190611837565b67ffffffffffffffff811115610c2c57610c2b611238565b5b6040519080825280601f01601f191660200182016040528015610c5e5781602001600182028036833780820191505090505b5090507f3000000000000000000000000000000000000000000000000000000000000000815f81518110610c9557610c9461186a565b5b60200101907effffffffffffffffffffffffffffffffffffffffffffffffffffffffffffff191690815f1a9053507f780000000000000000000000000000000000000000000000000000000000000081600181518110610cf857610cf761186a565b5b60200101907effffffffffffffffffffffffffffffffffffffffffffffffffffffffffffff191690815f1a9053505f6001846002610d3691906117f6565b610d409190611837565b90505b6001811115610ddf577f3031323334353637383961626364656600000000000000000000000000000000600f861660108110610d8257610d8161186a565b5b1a60f81b828281518110610d9957610d9861186a565b5b60200101907effffffffffffffffffffffffffffffffffffffffffffffffffffffffffffff191690815f1a905350600485901c945080610dd890611897565b9050610d43565b505f8414610e22576040517f08c379a0000000000000000000000000000000000000000000000000000000008152600401610e1990611908565b60405180910390fd5b8091505092915050565b5f819050919050565b610e3e81610e2c565b82525050565b5f819050919050565b610e5681610e44565b82525050565b5f604082019050610e6f5f830185610e35565b610e7c6020830184610e4d565b9392505050565b5f73ffffffffffffffffffffffffffffffffffffffff82169050919050565b5f610eac82610e83565b9050919050565b610ebc81610ea2565b82525050565b5f602082019050610ed55f830184610eb3565b92915050565b5f80fd5b5f80fd5b5f80fd5b5f80fd5b5f80fd5b5f8083601f840112610f0457610f03610ee3565b5b8235905067ffffffffffffffff811115610f2157610f20610ee7565b5b602083019150836001820283011115610f3d57610f3c610eeb565b5b9250929050565b610f4d81610e2c565b8114610f57575f80fd5b50565b5f81359050610f6881610f44565b92915050565b5f805f60408486031215610f8557610f84610edb565b5b5f84013567ffffffffffffffff811115610fa257610fa1610edf565b5b610fae86828701610eef565b93509350506020610fc186828701610f5a565b9150509250925092565b610fd481610ea2565b8114610fde575f80fd5b50565b5f81359050610fef81610fcb565b92915050565b5f6020828403121561100a57611009610edb565b5b5f61101784828501610fe1565b91505092915050565b5f81519050919050565b5f82825260208201905092915050565b8281835e5f83830152505050565b5f601f19601f8301169050919050565b5f61106282611020565b61106c818561102a565b935061107c81856020860161103a565b61108581611048565b840191505092915050565b5f6020820190508181035f8301526110a88184611058565b905092915050565b5f6040820190506110c35f830185610e4d565b6110d06020830184610e4d565b9392505050565b5f63ffffffff82169050919050565b6110ef816110d7565b82525050565b5f6060820190508181035f83015261110d8186611058565b905081810360208301526111218185611058565b905061113060408301846110e6565b949350505050565b7f4f6e6c792074686520547261696c20436f6e74726f6c6c65722063616e2063615f8201527f6c6c20746869732066756e6374696f6e00000000000000000000000000000000602082015250565b5f61119260308361102a565b915061119d82611138565b604082019050919050565b5f6020820190508181035f8301526111bf81611186565b9050919050565b7f496e76616c6964207374617465000000000000000000000000000000000000005f82015250565b5f6111fa600d8361102a565b9150611205826111c6565b602082019050919050565b5f6020820190508181035f830152611227816111ee565b9050919050565b5f82905092915050565b7f4e487b71000000000000000000000000000000000000000000000000000000005f52604160045260245ffd5b7f4e487b71000000000000000000000000000000000000000000000000000000005f52602260045260245ffd5b5f60028204905060018216806112a957607f821691505b6020821081036112bc576112bb611265565b5b50919050565b5f819050815f5260205f209050919050565b5f6020601f8301049050919050565b5f82821b905092915050565b5f6008830261131e7fffffffffffffffffffffffffffffffffffffffffffffffffffffffffffffffff826112e3565b61132886836112e3565b95508019841693508086168417925050509392505050565b5f819050919050565b5f61136361135e61135984610e44565b611340565b610e44565b9050919050565b5f819050919050565b61137c83611349565b6113906113888261136a565b8484546112ef565b825550505050565b5f90565b6113a4611398565b6113af818484611373565b505050565b5b818110156113d2576113c75f8261139c565b6001810190506113b5565b5050565b601f821115611417576113e8816112c2565b6113f1846112d4565b81016020851015611400578190505b61141461140c856112d4565b8301826113b4565b50505b505050565b5f82821c905092915050565b5f6114375f198460080261141c565b1980831691505092915050565b5f61144f8383611428565b9150826002028217905092915050565b611469838361122e565b67ffffffffffffffff81111561148257611481611238565b5b61148c8254611292565b6114978282856113d6565b5f601f8311600181146114c4575f84156114b2578287013590505b6114bc8582611444565b865550611523565b601f1984166114d2866112c2565b5f5b828110156114f9578489013582556001820191506020850194506020810190506114d4565b868310156115165784890135611512601f891682611428565b8355505b6001600288020188555050505b50505050505050565b7f4e487b71000000000000000000000000000000000000000000000000000000005f52601160045260245ffd5b5f611563826110d7565b915061156e836110d7565b9250828201905063ffffffff81111561158a5761158961152c565b5b92915050565b5f6020820190506115a35f8301846110e6565b92915050565b7f4f6e6c792074686520547261696c20476f7665726e6f722063616e2063616c6c5f8201527f20746869732066756e6374696f6e000000000000000000000000000000000000602082015250565b5f611603602e8361102a565b915061160e826115a9565b604082019050919050565b5f6020820190508181035f830152611630816115f7565b9050919050565b5f815461164381611292565b61164d818661102a565b9450600182165f8114611667576001811461167d576116af565b60ff1983168652811515602002860193506116af565b611686856112c2565b5f5b838110156116a757815481890152600182019150602081019050611688565b808801955050505b50505092915050565b5f6080820190506116cb5f830187610eb3565b6116d86020830186610eb3565b81810360408301526116ea8185611637565b90506116f960608301846110e6565b95945050505050565b7f75726e3a747261696c3a696f74613a65766d3a00000000000000000000000000815250565b5f81905092915050565b5f61173c82611020565b6117468185611728565b935061175681856020860161103a565b80840191505092915050565b7f3a00000000000000000000000000000000000000000000000000000000000000815250565b5f61179282611702565b6013820191506117a28285611732565b91506117ad82611762565b6001820191506117bd8284611732565b91508190509392505050565b7f4e487b71000000000000000000000000000000000000000000000000000000005f52601260045260245ffd5b5f61180082610e44565b915061180b83610e44565b925082820261181981610e44565b915082820484148315176118305761182f61152c565b5b5092915050565b5f61184182610e44565b915061184c83610e44565b92508282019050808211156118645761186361152c565b5b92915050565b7f4e487b71000000000000000000000000000000000000000000000000000000005f52603260045260245ffd5b5f6118a182610e44565b91505f82036118b3576118b261152c565b5b600182039050919050565b7f537472696e67733a20686578206c656e67746820696e73756666696369656e745f82015250565b5f6118f260208361102a565b91506118fd826118be565b602082019050919050565b5f6020820190508181035f83015261191f816118e6565b905091905056fea2646970667358221220416c5c33107a33593a092fc11bf1bbbe6d478b36b213108d8124d21d2667080764736f6c63430008190033",
    "immutableReferences": {},
    "source": "// SPDX-License-Identifier: MIT\n\npragma solidity >=0.4.16 <0.9.0;\n\nimport \"@openzeppelin/contracts/utils/Strings.sol\";\n\n/**\n  * Trails Smart Contracrt \n  */\ncontract TrailContract {\n    // Address which funded the Trail\n    address public immutableIssuerAddress;\n\n    address public governorAddress;\n    address public controllerAddress;\n\n    struct Trail {\n        string immutableData;\n        string recordData;\n        uint32 stateIndex;\n    }\n\n    struct TrailMeta {\n        uint created;\n        uint updated;\n        string[] trailType;\n    }\n\n    Trail public trail;\n    TrailMeta public meta;\n\n    TrailState public firstTrailState;\n    TrailState public lastTrailState;\n\n    struct TrailState {\n        bytes32 state;\n        uint blockNumber;\n    }\n\n    modifier onlyGovernor {\n        require(msg.sender == governorAddress, \"Only the Trail Governor can call this function\");\n        _;\n    }\n\n    modifier onlyController {\n        require(msg.sender == controllerAddress, \"Only the Trail Controller can call this function\");\n        _;\n    }\n\n    event TrailRecordAdded(address indexed controller, uint32 stateIndex, bytes32 indexed stateHash);\n\n    // Constructor is a special function which runs automatically on deployment.\n    constructor(address governor, address controller, string memory immutableData, string memory recordData, string memory trailType) {\n        immutableIssuerAddress = msg.sender;\n\n        governorAddress = governor;\n        controllerAddress = controller;\n\n        meta.trailType.push(\"TRAIL:1.0\");\n        bytes memory trailTypeBytes = bytes(trailType);\n        if (trailTypeBytes.length > 0) {\n            meta.trailType.push(trailType);\n        }\n        \n        trail.stateIndex = 0;\n\n        trail.immutableData = immutableData;\n        trail.recordData = recordData;\n\n        meta.created = block.timestamp;\n        meta.updated = block.timestamp;\n\n        lastTrailState = TrailState(calculateLastState(), block.number);\n        firstTrailState = lastTrailState;\n\n        emit TrailRecordAdded(controllerAddress, trail.stateIndex, lastTrailState.state);\n    }\n\n    /**\n     *.  Last record of a Trail.\n     */\n    function lastRecord() external view returns(string memory) {\n        return trail.recordData;\n    }\n\n    /** \n     *. Immutable record of a Trail.\n     */\n    function immutableRecord() external view returns(string memory) {\n        return trail.immutableData;\n    }\n\n    function addRecord(string calldata recordData, bytes32 fromStateHash) external onlyController {\n        if (lastTrailState.state != fromStateHash) {\n            revert(\"Invalid state\");\n        }\n\n        trail.recordData = recordData;\n        trail.stateIndex = trail.stateIndex + 1;\n\n        meta.updated = block.timestamp;\n\n         lastTrailState = TrailState(calculateLastState(), block.number);\n\n         emit TrailRecordAdded(controllerAddress, trail.stateIndex, lastTrailState.state);\n    }\n\n    function changeController(address newController) external onlyGovernor {\n        controllerAddress = newController;\n    }\n\n    function changeGovernor(address newGovernor) external onlyGovernor {\n        governorAddress = newGovernor;\n    }\n    \n    function trailID() external view returns (string memory) {\n        return calculateTrailID();\n    }\n\n    function calculateTrailID() internal view returns (string memory) {\n        uint256 chainID = getChainID();\n\n        return string.concat(\"urn:trail:iota:evm:\", Strings.toString(chainID),\":\", Strings.toHexString(address(this)));\n    }\n\n\n    function getChainID() internal view returns (uint256) {\n       return block.chainid;\n    }\n\n    function calculateLastState() internal view returns(bytes32) {\n        return keccak256(abi.encode(address(this), controllerAddress, trail.recordData, trail.stateIndex));\n    }\n}\n",
    "sourcePath": "/Users/jmcanterafonseca/work/IOTA/develop/Trail-SC-PoC/smart-contract/contracts/trail.sol",
    "compiler": {
        "name": "solc",
        "version": "0.8.25+commit.b61c2a91.Emscripten.clang"
    },
    "schemaVersion": "3.4.16",
    "updatedAt": "2024-03-25T16:36:06.881Z",
    "devdoc": {
        "kind": "dev",
        "methods": {},
        "version": 1
    },
    "userdoc": {
        "kind": "user",
        "methods": {
            "immutableRecord()": {
                "notice": ". Immutable record of a Trail."
            },
            "lastRecord()": {
                "notice": ".  Last record of a Trail."
            }
        },
        "notice": "Trails Smart Contracrt ",
        "version": 1
    }
}