{
    "contractName": "TrailContract",
    "abi": [
        {
            "inputs": [
                {
                    "internalType": "address",
                    "name": "governor",
                    "type": "address"
                },
                {
                    "internalType": "address",
                    "name": "controller",
                    "type": "address"
                },
                {
                    "internalType": "string",
                    "name": "immutableData",
                    "type": "string"
                },
                {
                    "internalType": "string",
                    "name": "recordData",
                    "type": "string"
                }
            ],
            "stateMutability": "nonpayable",
            "type": "constructor"
        },
        {
            "inputs": [],
            "name": "controllerAddress",
            "outputs": [
                {
                    "internalType": "address",
                    "name": "",
                    "type": "address"
                }
            ],
            "stateMutability": "view",
            "type": "function"
        },
        {
            "inputs": [],
            "name": "governorAddress",
            "outputs": [
                {
                    "internalType": "address",
                    "name": "",
                    "type": "address"
                }
            ],
            "stateMutability": "view",
            "type": "function"
        },
        {
            "inputs": [],
            "name": "immutableIssuerAddress",
            "outputs": [
                {
                    "internalType": "address",
                    "name": "",
                    "type": "address"
                }
            ],
            "stateMutability": "view",
            "type": "function"
        },
        {
            "inputs": [],
            "name": "lastTrailStateHash",
            "outputs": [
                {
                    "internalType": "bytes32",
                    "name": "",
                    "type": "bytes32"
                }
            ],
            "stateMutability": "view",
            "type": "function"
        },
        {
            "inputs": [],
            "name": "trail",
            "outputs": [
                {
                    "internalType": "string",
                    "name": "immutableData",
                    "type": "string"
                },
                {
                    "internalType": "string",
                    "name": "recordData",
                    "type": "string"
                },
                {
                    "internalType": "uint32",
                    "name": "stateIndex",
                    "type": "uint32"
                },
                {
                    "internalType": "uint256",
                    "name": "created",
                    "type": "uint256"
                },
                {
                    "internalType": "uint256",
                    "name": "updated",
                    "type": "uint256"
                }
            ],
            "stateMutability": "view",
            "type": "function"
        },
        {
            "inputs": [
                {
                    "internalType": "uint256",
                    "name": "",
                    "type": "uint256"
                }
            ],
            "name": "trailType",
            "outputs": [
                {
                    "internalType": "string",
                    "name": "",
                    "type": "string"
                }
            ],
            "stateMutability": "view",
            "type": "function"
        },
        {
            "inputs": [
                {
                    "internalType": "uint32",
                    "name": "_stateIndex",
                    "type": "uint32"
                }
            ],
            "name": "getTrailState",
            "outputs": [
                {
                    "components": [
                        {
                            "internalType": "bytes32",
                            "name": "state",
                            "type": "bytes32"
                        },
                        {
                            "internalType": "uint256",
                            "name": "blockNumber",
                            "type": "uint256"
                        }
                    ],
                    "internalType": "struct TrailContract.TrailState",
                    "name": "",
                    "type": "tuple"
                }
            ],
            "stateMutability": "view",
            "type": "function"
        },
        {
            "inputs": [],
            "name": "lastRecord",
            "outputs": [
                {
                    "internalType": "string",
                    "name": "",
                    "type": "string"
                }
            ],
            "stateMutability": "view",
            "type": "function"
        },
        {
            "inputs": [],
            "name": "immutableRecord",
            "outputs": [
                {
                    "internalType": "string",
                    "name": "",
                    "type": "string"
                }
            ],
            "stateMutability": "view",
            "type": "function"
        },
        {
            "inputs": [
                {
                    "internalType": "string",
                    "name": "recordData",
                    "type": "string"
                },
                {
                    "internalType": "bytes32",
                    "name": "fromStateHash",
                    "type": "bytes32"
                }
            ],
            "name": "addRecord",
            "outputs": [],
            "stateMutability": "nonpayable",
            "type": "function"
        },
        {
            "inputs": [
                {
                    "internalType": "address",
                    "name": "newController",
                    "type": "address"
                }
            ],
            "name": "changeController",
            "outputs": [],
            "stateMutability": "nonpayable",
            "type": "function"
        },
        {
            "inputs": [
                {
                    "internalType": "address",
                    "name": "newGovernor",
                    "type": "address"
                }
            ],
            "name": "changeGovernor",
            "outputs": [],
            "stateMutability": "nonpayable",
            "type": "function"
        },
        {
            "inputs": [],
            "name": "trailID",
            "outputs": [
                {
                    "internalType": "string",
                    "name": "",
                    "type": "string"
                }
            ],
            "stateMutability": "view",
            "type": "function"
        }
    ],
    "bytecode": "0x608060405234801561000f575f80fd5b5060405161246c38038061246c83398181016040528101906100319190610432565b335f806101000a81548173ffffffffffffffffffffffffffffffffffffffff021916908373ffffffffffffffffffffffffffffffffffffffff1602179055508360015f6101000a81548173ffffffffffffffffffffffffffffffffffffffff021916908373ffffffffffffffffffffffffffffffffffffffff1602179055508260025f6101000a81548173ffffffffffffffffffffffffffffffffffffffff021916908373ffffffffffffffffffffffffffffffffffffffff16021790555060038060018154018082558091505060019003905f5260205f20015f6040518060400160405280600981526020017f545241494c3a312e3000000000000000000000000000000000000000000000008152509091909150908161015391906106db565b505f60046002015f6101000a81548163ffffffff021916908363ffffffff1602179055508160045f01908161018891906106db565b50806004600101908161019b91906106db565b50426004600301819055504260048001819055506101bd61021f60201b60201c565b600981905550600a6040518060400160405280600954815260200143815250908060018154018082558091505060019003905f5260205f2090600202015f909190919091505f820151815f0155602082015181600101555050505050506108b2565b5f3060025f9054906101000a900473ffffffffffffffffffffffffffffffffffffffff16600460010160046002015f9054906101000a900463ffffffff166040516020016102709493929190610868565b60405160208183030381529060405280519060200120905090565b5f604051905090565b5f80fd5b5f80fd5b5f73ffffffffffffffffffffffffffffffffffffffff82169050919050565b5f6102c58261029c565b9050919050565b6102d5816102bb565b81146102df575f80fd5b50565b5f815190506102f0816102cc565b92915050565b5f80fd5b5f80fd5b5f601f19601f8301169050919050565b7f4e487b71000000000000000000000000000000000000000000000000000000005f52604160045260245ffd5b610344826102fe565b810181811067ffffffffffffffff821117156103635761036261030e565b5b80604052505050565b5f61037561028b565b9050610381828261033b565b919050565b5f67ffffffffffffffff8211156103a05761039f61030e565b5b6103a9826102fe565b9050602081019050919050565b8281835e5f83830152505050565b5f6103d66103d184610386565b61036c565b9050828152602081018484840111156103f2576103f16102fa565b5b6103fd8482856103b6565b509392505050565b5f82601f830112610419576104186102f6565b5b81516104298482602086016103c4565b91505092915050565b5f805f806080858703121561044a57610449610294565b5b5f610457878288016102e2565b9450506020610468878288016102e2565b935050604085015167ffffffffffffffff81111561048957610488610298565b5b61049587828801610405565b925050606085015167ffffffffffffffff8111156104b6576104b5610298565b5b6104c287828801610405565b91505092959194509250565b5f81519050919050565b7f4e487b71000000000000000000000000000000000000000000000000000000005f52602260045260245ffd5b5f600282049050600182168061051c57607f821691505b60208210810361052f5761052e6104d8565b5b50919050565b5f819050815f5260205f209050919050565b5f6020601f8301049050919050565b5f82821b905092915050565b5f600883026105917fffffffffffffffffffffffffffffffffffffffffffffffffffffffffffffffff82610556565b61059b8683610556565b95508019841693508086168417925050509392505050565b5f819050919050565b5f819050919050565b5f6105df6105da6105d5846105b3565b6105bc565b6105b3565b9050919050565b5f819050919050565b6105f8836105c5565b61060c610604826105e6565b848454610562565b825550505050565b5f90565b610620610614565b61062b8184846105ef565b505050565b5b8181101561064e576106435f82610618565b600181019050610631565b5050565b601f8211156106935761066481610535565b61066d84610547565b8101602085101561067c578190505b61069061068885610547565b830182610630565b50505b505050565b5f82821c905092915050565b5f6106b35f1984600802610698565b1980831691505092915050565b5f6106cb83836106a4565b9150826002028217905092915050565b6106e4826104ce565b67ffffffffffffffff8111156106fd576106fc61030e565b5b6107078254610505565b610712828285610652565b5f60209050601f831160018114610743575f8415610731578287015190505b61073b85826106c0565b8655506107a2565b601f19841661075186610535565b5f5b8281101561077857848901518255600182019150602085019450602081019050610753565b868310156107955784890151610791601f8916826106a4565b8355505b6001600288020188555050505b505050505050565b6107b3816102bb565b82525050565b5f82825260208201905092915050565b5f81546107d581610505565b6107df81866107b9565b9450600182165f81146107f9576001811461080f57610841565b60ff198316865281151560200286019350610841565b61081885610535565b5f5b838110156108395781548189015260018201915060208101905061081a565b808801955050505b50505092915050565b5f63ffffffff82169050919050565b6108628161084a565b82525050565b5f60808201905061087b5f8301876107aa565b61088860208301866107aa565b818103604083015261089a81856107c9565b90506108a96060830184610859565b95945050505050565b611bad806108bf5f395ff3fe608060405234801561000f575f80fd5b50600436106100cd575f3560e01c80636922b1761161008a578063e2557f3711610064578063e2557f37146101ff578063e3a645981461021d578063e40a315f1461023f578063e4c0aaf41461025d576100cd565b80636922b176146101935780638722430f146101c3578063b2124a9b146101e1576100cd565b8063276f1c41146100d1578063308631e1146100ef5780633120ed3d1461010b5780633cebb8231461013b5780634b24ea471461015757806360945b7314610175575b5f80fd5b6100d9610279565b6040516100e69190610f78565b60405180910390f35b6101096004803603810190610104919061102d565b61029e565b005b610125600480360381019061012091906110c3565b610438565b6040516101329190611142565b60405180910390f35b61015560048036038101906101509190611185565b6104ee565b005b61015f6105c0565b60405161016c9190610f78565b60405180910390f35b61017d6105e5565b60405161018a9190610f78565b60405180910390f35b6101ad60048036038101906101a891906111da565b610608565b6040516101ba9190611275565b60405180910390f35b6101cb6106ae565b6040516101d891906112a4565b60405180910390f35b6101e96106b4565b6040516101f69190611275565b60405180910390f35b610207610746565b6040516102149190611275565b60405180910390f35b6102256107d9565b6040516102369594939291906112db565b60405180910390f35b610247610917565b6040516102549190611275565b60405180910390f35b61027760048036038101906102729190611185565b61095c565b005b60015f9054906101000a900473ffffffffffffffffffffffffffffffffffffffff1681565b60025f9054906101000a900473ffffffffffffffffffffffffffffffffffffffff1673ffffffffffffffffffffffffffffffffffffffff163373ffffffffffffffffffffffffffffffffffffffff161461032d576040517f08c379a0000000000000000000000000000000000000000000000000000000008152600401610324906113aa565b60405180910390fd5b8060095414610371576040517f08c379a000000000000000000000000000000000000000000000000000000000815260040161036890611412565b60405180910390fd5b828260046001019182610385929190611661565b50600160046002015f9054906101000a900463ffffffff166103a7919061175b565b60046002015f6101000a81548163ffffffff021916908363ffffffff1602179055504260048001819055506103da610a2e565b600981905550600a6040518060400160405280600954815260200143815250908060018154018082558091505060019003905f5260205f2090600202015f909190919091505f820151815f0155602082015181600101555050505050565b610440610f1e565b60046002015f9054906101000a900463ffffffff1663ffffffff168263ffffffff1611156104a3576040517f08c379a000000000000000000000000000000000000000000000000000000000815260040161049a906117dc565b60405180910390fd5b600a8263ffffffff16815481106104bd576104bc6117fa565b5b905f5260205f2090600202016040518060400160405290815f82015481526020016001820154815250509050919050565b60015f9054906101000a900473ffffffffffffffffffffffffffffffffffffffff1673ffffffffffffffffffffffffffffffffffffffff163373ffffffffffffffffffffffffffffffffffffffff161461057d576040517f08c379a000000000000000000000000000000000000000000000000000000000815260040161057490611897565b60405180910390fd5b8060025f6101000a81548173ffffffffffffffffffffffffffffffffffffffff021916908373ffffffffffffffffffffffffffffffffffffffff16021790555050565b60025f9054906101000a900473ffffffffffffffffffffffffffffffffffffffff1681565b5f8054906101000a900473ffffffffffffffffffffffffffffffffffffffff1681565b60038181548110610617575f80fd5b905f5260205f20015f91509050805461062f90611494565b80601f016020809104026020016040519081016040528092919081815260200182805461065b90611494565b80156106a65780601f1061067d576101008083540402835291602001916106a6565b820191905f5260205f20905b81548152906001019060200180831161068957829003601f168201915b505050505081565b60095481565b606060045f0180546106c590611494565b80601f01602080910402602001604051908101604052809291908181526020018280546106f190611494565b801561073c5780601f106107135761010080835404028352916020019161073c565b820191905f5260205f20905b81548152906001019060200180831161071f57829003601f168201915b5050505050905090565b60606004600101805461075890611494565b80601f016020809104026020016040519081016040528092919081815260200182805461078490611494565b80156107cf5780601f106107a6576101008083540402835291602001916107cf565b820191905f5260205f20905b8154815290600101906020018083116107b257829003601f168201915b5050505050905090565b6004805f0180546107e990611494565b80601f016020809104026020016040519081016040528092919081815260200182805461081590611494565b80156108605780601f1061083757610100808354040283529160200191610860565b820191905f5260205f20905b81548152906001019060200180831161084357829003601f168201915b50505050509080600101805461087590611494565b80601f01602080910402602001604051908101604052809291908181526020018280546108a190611494565b80156108ec5780601f106108c3576101008083540402835291602001916108ec565b820191905f5260205f20905b8154815290600101906020018083116108cf57829003601f168201915b505050505090806002015f9054906101000a900463ffffffff16908060030154908060040154905085565b60605f610922610a9a565b905061092d81610aa1565b61093630610b6b565b60405160200161094792919061193b565b60405160208183030381529060405291505090565b60015f9054906101000a900473ffffffffffffffffffffffffffffffffffffffff1673ffffffffffffffffffffffffffffffffffffffff163373ffffffffffffffffffffffffffffffffffffffff16146109eb576040517f08c379a00000000000000000000000000000000000000000000000000000000081526004016109e290611897565b60405180910390fd5b8060015f6101000a81548173ffffffffffffffffffffffffffffffffffffffff021916908373ffffffffffffffffffffffffffffffffffffffff16021790555050565b5f3060025f9054906101000a900473ffffffffffffffffffffffffffffffffffffffff16600460010160046002015f9054906101000a900463ffffffff16604051602001610a7f94939291906119fd565b60405160208183030381529060405280519060200120905090565b5f46905090565b60605f6001610aaf84610b98565b0190505f8167ffffffffffffffff811115610acd57610acc61143a565b5b6040519080825280601f01601f191660200182016040528015610aff5781602001600182028036833780820191505090505b5090505f82602001820190505b600115610b60578080600190039150507f3031323334353637383961626364656600000000000000000000000000000000600a86061a8153600a8581610b5557610b54611a47565b5b0494505f8503610b0c575b819350505050919050565b6060610b918273ffffffffffffffffffffffffffffffffffffffff16601460ff16610ce9565b9050919050565b5f805f90507a184f03e93ff9f4daa797ed6e38ed64bf6a1f0100000000000000008310610bf4577a184f03e93ff9f4daa797ed6e38ed64bf6a1f0100000000000000008381610bea57610be9611a47565b5b0492506040810190505b6d04ee2d6d415b85acef81000000008310610c31576d04ee2d6d415b85acef81000000008381610c2757610c26611a47565b5b0492506020810190505b662386f26fc100008310610c6057662386f26fc100008381610c5657610c55611a47565b5b0492506010810190505b6305f5e1008310610c89576305f5e1008381610c7f57610c7e611a47565b5b0492506008810190505b6127108310610cae576127108381610ca457610ca3611a47565b5b0492506004810190505b60648310610cd15760648381610cc757610cc6611a47565b5b0492506002810190505b600a8310610ce0576001810190505b80915050919050565b60605f6002836002610cfb9190611a74565b610d059190611ab5565b67ffffffffffffffff811115610d1e57610d1d61143a565b5b6040519080825280601f01601f191660200182016040528015610d505781602001600182028036833780820191505090505b5090507f3000000000000000000000000000000000000000000000000000000000000000815f81518110610d8757610d866117fa565b5b60200101907effffffffffffffffffffffffffffffffffffffffffffffffffffffffffffff191690815f1a9053507f780000000000000000000000000000000000000000000000000000000000000081600181518110610dea57610de96117fa565b5b60200101907effffffffffffffffffffffffffffffffffffffffffffffffffffffffffffff191690815f1a9053505f6001846002610e289190611a74565b610e329190611ab5565b90505b6001811115610ed1577f3031323334353637383961626364656600000000000000000000000000000000600f861660108110610e7457610e736117fa565b5b1a60f81b828281518110610e8b57610e8a6117fa565b5b60200101907effffffffffffffffffffffffffffffffffffffffffffffffffffffffffffff191690815f1a905350600485901c945080610eca90611ae8565b9050610e35565b505f8414610f14576040517f08c379a0000000000000000000000000000000000000000000000000000000008152600401610f0b90611b59565b60405180910390fd5b8091505092915050565b60405180604001604052805f80191681526020015f81525090565b5f73ffffffffffffffffffffffffffffffffffffffff82169050919050565b5f610f6282610f39565b9050919050565b610f7281610f58565b82525050565b5f602082019050610f8b5f830184610f69565b92915050565b5f80fd5b5f80fd5b5f80fd5b5f80fd5b5f80fd5b5f8083601f840112610fba57610fb9610f99565b5b8235905067ffffffffffffffff811115610fd757610fd6610f9d565b5b602083019150836001820283011115610ff357610ff2610fa1565b5b9250929050565b5f819050919050565b61100c81610ffa565b8114611016575f80fd5b50565b5f8135905061102781611003565b92915050565b5f805f6040848603121561104457611043610f91565b5b5f84013567ffffffffffffffff81111561106157611060610f95565b5b61106d86828701610fa5565b9350935050602061108086828701611019565b9150509250925092565b5f63ffffffff82169050919050565b6110a28161108a565b81146110ac575f80fd5b50565b5f813590506110bd81611099565b92915050565b5f602082840312156110d8576110d7610f91565b5b5f6110e5848285016110af565b91505092915050565b6110f781610ffa565b82525050565b5f819050919050565b61110f816110fd565b82525050565b604082015f8201516111295f8501826110ee565b50602082015161113c6020850182611106565b50505050565b5f6040820190506111555f830184611115565b92915050565b61116481610f58565b811461116e575f80fd5b50565b5f8135905061117f8161115b565b92915050565b5f6020828403121561119a57611199610f91565b5b5f6111a784828501611171565b91505092915050565b6111b9816110fd565b81146111c3575f80fd5b50565b5f813590506111d4816111b0565b92915050565b5f602082840312156111ef576111ee610f91565b5b5f6111fc848285016111c6565b91505092915050565b5f81519050919050565b5f82825260208201905092915050565b8281835e5f83830152505050565b5f601f19601f8301169050919050565b5f61124782611205565b611251818561120f565b935061126181856020860161121f565b61126a8161122d565b840191505092915050565b5f6020820190508181035f83015261128d818461123d565b905092915050565b61129e81610ffa565b82525050565b5f6020820190506112b75f830184611295565b92915050565b6112c68161108a565b82525050565b6112d5816110fd565b82525050565b5f60a0820190508181035f8301526112f3818861123d565b90508181036020830152611307818761123d565b905061131660408301866112bd565b61132360608301856112cc565b61133060808301846112cc565b9695505050505050565b7f4f6e6c792074686520547261696c20436f6e74726f6c6c65722063616e2063615f8201527f6c6c20746869732066756e6374696f6e00000000000000000000000000000000602082015250565b5f61139460308361120f565b915061139f8261133a565b604082019050919050565b5f6020820190508181035f8301526113c181611388565b9050919050565b7f496e76616c6964207374617465000000000000000000000000000000000000005f82015250565b5f6113fc600d8361120f565b9150611407826113c8565b602082019050919050565b5f6020820190508181035f830152611429816113f0565b9050919050565b5f82905092915050565b7f4e487b71000000000000000000000000000000000000000000000000000000005f52604160045260245ffd5b7f4e487b71000000000000000000000000000000000000000000000000000000005f52602260045260245ffd5b5f60028204905060018216806114ab57607f821691505b6020821081036114be576114bd611467565b5b50919050565b5f819050815f5260205f209050919050565b5f6020601f8301049050919050565b5f82821b905092915050565b5f600883026115207fffffffffffffffffffffffffffffffffffffffffffffffffffffffffffffffff826114e5565b61152a86836114e5565b95508019841693508086168417925050509392505050565b5f819050919050565b5f61156561156061155b846110fd565b611542565b6110fd565b9050919050565b5f819050919050565b61157e8361154b565b61159261158a8261156c565b8484546114f1565b825550505050565b5f90565b6115a661159a565b6115b1818484611575565b505050565b5b818110156115d4576115c95f8261159e565b6001810190506115b7565b5050565b601f821115611619576115ea816114c4565b6115f3846114d6565b81016020851015611602578190505b61161661160e856114d6565b8301826115b6565b50505b505050565b5f82821c905092915050565b5f6116395f198460080261161e565b1980831691505092915050565b5f611651838361162a565b9150826002028217905092915050565b61166b8383611430565b67ffffffffffffffff8111156116845761168361143a565b5b61168e8254611494565b6116998282856115d8565b5f601f8311600181146116c6575f84156116b4578287013590505b6116be8582611646565b865550611725565b601f1984166116d4866114c4565b5f5b828110156116fb578489013582556001820191506020850194506020810190506116d6565b868310156117185784890135611714601f89168261162a565b8355505b6001600288020188555050505b50505050505050565b7f4e487b71000000000000000000000000000000000000000000000000000000005f52601160045260245ffd5b5f6117658261108a565b91506117708361108a565b9250828201905063ffffffff81111561178c5761178b61172e565b5b92915050565b7f496e76616c696420737461746520696e646578000000000000000000000000005f82015250565b5f6117c660138361120f565b91506117d182611792565b602082019050919050565b5f6020820190508181035f8301526117f3816117ba565b9050919050565b7f4e487b71000000000000000000000000000000000000000000000000000000005f52603260045260245ffd5b7f4f6e6c792074686520547261696c20476f7665726e6f722063616e2063616c6c5f8201527f20746869732066756e6374696f6e000000000000000000000000000000000000602082015250565b5f611881602e8361120f565b915061188c82611827565b604082019050919050565b5f6020820190508181035f8301526118ae81611875565b9050919050565b7f75726e3a747261696c3a696f74613a65766d3a00000000000000000000000000815250565b5f81905092915050565b5f6118ef82611205565b6118f981856118db565b935061190981856020860161121f565b80840191505092915050565b7f3a00000000000000000000000000000000000000000000000000000000000000815250565b5f611945826118b5565b60138201915061195582856118e5565b915061196082611915565b60018201915061197082846118e5565b91508190509392505050565b5f815461198881611494565b611992818661120f565b9450600182165f81146119ac57600181146119c2576119f4565b60ff1983168652811515602002860193506119f4565b6119cb856114c4565b5f5b838110156119ec578154818901526001820191506020810190506119cd565b808801955050505b50505092915050565b5f608082019050611a105f830187610f69565b611a1d6020830186610f69565b8181036040830152611a2f818561197c565b9050611a3e60608301846112bd565b95945050505050565b7f4e487b71000000000000000000000000000000000000000000000000000000005f52601260045260245ffd5b5f611a7e826110fd565b9150611a89836110fd565b9250828202611a97816110fd565b91508282048414831517611aae57611aad61172e565b5b5092915050565b5f611abf826110fd565b9150611aca836110fd565b9250828201905080821115611ae257611ae161172e565b5b92915050565b5f611af2826110fd565b91505f8203611b0457611b0361172e565b5b600182039050919050565b7f537472696e67733a20686578206c656e67746820696e73756666696369656e745f82015250565b5f611b4360208361120f565b9150611b4e82611b0f565b602082019050919050565b5f6020820190508181035f830152611b7081611b37565b905091905056fea264697066735822122080ba939fb245f848197cee51f321c58cd282354421cf4c6d52824f3f109bf11164736f6c63430008190033",
    "immutableReferences": {},
    "source": "// SPDX-License-Identifier: MIT\n\npragma solidity >=0.4.16 <0.9.0;\n\nimport \"@openzeppelin/contracts/utils/Strings.sol\";\n\n/**\n  * Trails Smart Contracrt \n  */\ncontract TrailContract {\n    address public immutableIssuerAddress;\n\n    address public governorAddress;\n    address public controllerAddress;\n\n    string[] public trailType;\n\n    struct Trail {\n        string immutableData;\n        string recordData;\n        uint32 stateIndex;\n        uint created;\n        uint updated;\n    }\n\n    Trail public trail;\n\n    bytes32 public lastTrailStateHash;\n\n    struct TrailState {\n        bytes32 state;\n        uint blockNumber;\n    }\n\n    TrailState[] trailStates;\n\n    modifier onlyGovernor {\n        require(msg.sender == governorAddress, \"Only the Trail Governor can call this function\");\n        _;\n    }\n\n    modifier onlyController {\n        require(msg.sender == controllerAddress, \"Only the Trail Controller can call this function\");\n        _;\n    }\n\n    // Constructor is a special function which runs automatically on deployment.\n    constructor(address governor, address controller, string memory immutableData, string memory recordData) {\n        immutableIssuerAddress = msg.sender;\n\n        governorAddress = governor;\n        controllerAddress = controller;\n        trailType.push(\"TRAIL:1.0\");\n        trail.stateIndex = 0;\n\n        trail.immutableData = immutableData;\n        trail.recordData = recordData;\n\n        trail.created = block.timestamp;\n        trail.updated = block.timestamp;\n\n        lastTrailStateHash = calculateLastState();\n        trailStates.push(TrailState(lastTrailStateHash, block.number));\n    }\n\n    /**\n     *. Returns the Trail State at a particular state Index.\n     */\n    function getTrailState(uint32 _stateIndex) external view returns (TrailState memory) {\n        if (_stateIndex > trail.stateIndex) {\n            revert(\"Invalid state index\");\n        }\n        return trailStates[_stateIndex];\n    }\n\n    /**\n     *.  Last record of a Trail.\n     */\n    function lastRecord() external view returns(string memory) {\n        return trail.recordData;\n    }\n\n    /** \n     *. Immutable record of a Trail.\n     */\n    function immutableRecord() external view returns(string memory) {\n        return trail.immutableData;\n    }\n\n    function addRecord(string calldata recordData, bytes32 fromStateHash) external onlyController {\n        if (lastTrailStateHash != fromStateHash) {\n            revert(\"Invalid state\");\n        }\n\n        trail.recordData = recordData;\n        trail.stateIndex = trail.stateIndex + 1;\n\n        trail.updated = block.timestamp;\n\n         lastTrailStateHash = calculateLastState();\n         trailStates.push(TrailState(lastTrailStateHash, block.number));\n    }\n\n    function changeController(address newController) external onlyGovernor {\n        controllerAddress = newController;\n    }\n\n    function changeGovernor(address newGovernor) external onlyGovernor {\n        governorAddress = newGovernor;\n    }\n    \n    function trailID() external view returns (string memory) {\n        uint256 chainID = getChainID();\n\n        return string.concat(\"urn:trail:iota:evm:\", Strings.toString(chainID),\":\", Strings.toHexString(address(this)));\n    }\n\n    function getChainID() internal view returns (uint256) {\n       return block.chainid;\n    }\n\n    function calculateLastState() internal view returns(bytes32) {\n        return keccak256(abi.encode(address(this), controllerAddress, trail.recordData, trail.stateIndex));\n    }\n}\n",
    "sourcePath": "/Users/jmcanterafonseca/work/IOTA/develop/Trail-SC-PoC/smart-contract/contracts/trail.sol",
    "compiler": {
        "name": "solc",
        "version": "0.8.25+commit.b61c2a91.Emscripten.clang"
    },
    "schemaVersion": "3.4.16",
    "updatedAt": "2024-03-25T11:00:39.935Z",
    "devdoc": {
        "kind": "dev",
        "methods": {},
        "version": 1
    },
    "userdoc": {
        "kind": "user",
        "methods": {
            "getTrailState(uint32)": {
                "notice": ". Returns the Trail State at a particular state Index."
            },
            "immutableRecord()": {
                "notice": ". Immutable record of a Trail."
            },
            "lastRecord()": {
                "notice": ".  Last record of a Trail."
            }
        },
        "notice": "Trails Smart Contracrt ",
        "version": 1
    }
}